{
  "contractName": "Funder",
  "abi": [
    {
      "inputs": [],
      "stateMutability": "nonpayable",
      "type": "constructor"
    },
    {
      "inputs": [],
      "name": "accepted",
      "outputs": [
        {
          "internalType": "uint256",
          "name": "",
          "type": "uint256"
        }
      ],
      "stateMutability": "view",
      "type": "function",
      "constant": true
    },
    {
      "inputs": [],
      "name": "numOfFunders",
      "outputs": [
        {
          "internalType": "uint256",
          "name": "",
          "type": "uint256"
        }
      ],
      "stateMutability": "view",
      "type": "function",
      "constant": true
    },
    {
      "inputs": [],
      "name": "owner",
      "outputs": [
        {
          "internalType": "address",
          "name": "",
          "type": "address"
        }
      ],
      "stateMutability": "view",
      "type": "function",
      "constant": true
    },
    {
      "inputs": [
        {
          "internalType": "uint256",
          "name": "",
          "type": "uint256"
        }
      ],
      "name": "users",
      "outputs": [
        {
          "internalType": "address",
          "name": "userAddress",
          "type": "address"
        },
        {
          "internalType": "string",
          "name": "username",
          "type": "string"
        },
        {
          "internalType": "string",
          "name": "email",
          "type": "string"
        },
        {
          "internalType": "string",
          "name": "password",
          "type": "string"
        },
        {
          "internalType": "string",
          "name": "firstname",
          "type": "string"
        },
        {
          "internalType": "string",
          "name": "lastname",
          "type": "string"
        }
      ],
      "stateMutability": "view",
      "type": "function",
      "constant": true
    },
    {
      "inputs": [],
      "name": "usersCount",
      "outputs": [
        {
          "internalType": "uint256",
          "name": "",
          "type": "uint256"
        }
      ],
      "stateMutability": "view",
      "type": "function",
      "constant": true
    },
    {
      "inputs": [
        {
          "internalType": "string",
          "name": "em",
          "type": "string"
        },
        {
          "internalType": "string",
          "name": "pass",
          "type": "string"
        }
      ],
      "name": "getUser",
      "outputs": [
        {
          "internalType": "bool",
          "name": "",
          "type": "bool"
        }
      ],
      "stateMutability": "view",
      "type": "function",
      "constant": true
    },
    {
      "inputs": [
        {
          "internalType": "string",
          "name": "_email",
          "type": "string"
        },
        {
          "internalType": "string",
          "name": "password",
          "type": "string"
        },
        {
          "internalType": "string",
          "name": "firstname",
          "type": "string"
        },
        {
          "internalType": "string",
          "name": "lastname",
          "type": "string"
        },
        {
          "internalType": "string",
          "name": "_username",
          "type": "string"
        },
        {
          "internalType": "string",
          "name": "token",
          "type": "string"
        }
      ],
      "name": "createUser",
      "outputs": [],
      "stateMutability": "nonpayable",
      "type": "function"
    },
    {
      "inputs": [],
      "name": "getOwner",
      "outputs": [
        {
          "internalType": "address",
          "name": "",
          "type": "address"
        }
      ],
      "stateMutability": "view",
      "type": "function",
      "constant": true
    },
    {
      "inputs": [],
      "name": "createAppoint",
      "outputs": [
        {
          "internalType": "uint104",
          "name": "",
          "type": "uint104"
        }
      ],
      "stateMutability": "view",
      "type": "function",
      "constant": true
    },
    {
      "inputs": [
        {
          "internalType": "uint256",
          "name": "withdrawAmount",
          "type": "uint256"
        }
      ],
      "name": "withdraw",
      "outputs": [],
      "stateMutability": "nonpayable",
      "type": "function"
    }
  ],
  "bytecode": "0x608060405260006002556000600355600060045534801561001f57600080fd5b5033600560006101000a81548173ffffffffffffffffffffffffffffffffffffffff021916908373ffffffffffffffffffffffffffffffffffffffff16021790555061150d806100706000396000f3fe608060405234801561001057600080fd5b506004361061009e5760003560e01c806383e6858f1161006657806383e6858f1461014c578063893d20e81461017c5780638da5cb5b1461019a578063af7f2c9b146101b8578063d7141c5e146101d65761009e565b806301dadb2b146100a35780632e1a7d4d146100bf578063365b98b2146100db57806367fe5a0c146101105780636ba13a821461012e575b600080fd5b6100bd60048036038101906100b89190610c53565b6101f4565b005b6100d960048036038101906100d49190610dbe565b610416565b005b6100f560048036038101906100f09190610dbe565b610504565b60405161010796959493929190610eb4565b60405180910390f35b610118610818565b6040516101259190610f47565b60405180910390f35b61013661081e565b6040516101439190610f47565b60405180910390f35b61016660048036038101906101619190610f62565b610824565b6040516101739190610ff5565b60405180910390f35b610184610a9e565b6040516101919190611010565b60405180910390f35b6101a2610ac8565b6040516101af9190611010565b60405180910390f35b6101c0610aee565b6040516101cd9190610f47565b60405180910390f35b6101de610af4565b6040516101eb9190611053565b60405180910390f35b60006040518060c001604052803373ffffffffffffffffffffffffffffffffffffffff1681526020018481526020018881526020018781526020018681526020018581525090506002600081548092919061024e9061109d565b9190505550600081908060018154018082558091505060019003906000526020600020906006020160009091909190915060008201518160000160006101000a81548173ffffffffffffffffffffffffffffffffffffffff021916908373ffffffffffffffffffffffffffffffffffffffff16021790555060208201518160010190816102db91906112f1565b5060408201518160020190816102f191906112f1565b50606082015181600301908161030791906112f1565b50608082015181600401908161031d91906112f1565b5060a082015181600501908161033391906112f1565b5050508060018360405161034791906113ff565b908152602001604051809103902060008201518160000160006101000a81548173ffffffffffffffffffffffffffffffffffffffff021916908373ffffffffffffffffffffffffffffffffffffffff16021790555060208201518160010190816103b191906112f1565b5060408201518160020190816103c791906112f1565b5060608201518160030190816103dd91906112f1565b5060808201518160040190816103f391906112f1565b5060a082015181600501908161040991906112f1565b5090505050505050505050565b671bc16d674ec80000811115801561047b5750600560009054906101000a900473ffffffffffffffffffffffffffffffffffffffff1673ffffffffffffffffffffffffffffffffffffffff163373ffffffffffffffffffffffffffffffffffffffff16145b6104ba576040517f08c379a00000000000000000000000000000000000000000000000000000000081526004016104b190611488565b60405180910390fd5b3373ffffffffffffffffffffffffffffffffffffffff166108fc829081150290604051600060405180830381858888f19350505050158015610500573d6000803e3d6000fd5b5050565b6000818154811061051457600080fd5b90600052602060002090600602016000915090508060000160009054906101000a900473ffffffffffffffffffffffffffffffffffffffff169080600101805461055d90611114565b80601f016020809104026020016040519081016040528092919081815260200182805461058990611114565b80156105d65780601f106105ab576101008083540402835291602001916105d6565b820191906000526020600020905b8154815290600101906020018083116105b957829003601f168201915b5050505050908060020180546105eb90611114565b80601f016020809104026020016040519081016040528092919081815260200182805461061790611114565b80156106645780601f1061063957610100808354040283529160200191610664565b820191906000526020600020905b81548152906001019060200180831161064757829003601f168201915b50505050509080600301805461067990611114565b80601f01602080910402602001604051908101604052809291908181526020018280546106a590611114565b80156106f25780601f106106c7576101008083540402835291602001916106f2565b820191906000526020600020905b8154815290600101906020018083116106d557829003601f168201915b50505050509080600401805461070790611114565b80601f016020809104026020016040519081016040528092919081815260200182805461073390611114565b80156107805780601f1061075557610100808354040283529160200191610780565b820191906000526020600020905b81548152906001019060200180831161076357829003601f168201915b50505050509080600501805461079590611114565b80601f01602080910402602001604051908101604052809291908181526020018280546107c190611114565b801561080e5780601f106107e35761010080835404028352916020019161080e565b820191906000526020600020905b8154815290600101906020018083116107f157829003601f168201915b5050505050905086565b60065481565b60025481565b600080600254905060005b60025481101561096857600080828154811061084e5761084d6114a8565b5b9060005260206000209060060201600201805461086a90611114565b80601f016020809104026020016040519081016040528092919081815260200182805461089690611114565b80156108e35780601f106108b8576101008083540402835291602001916108e3565b820191906000526020600020905b8154815290600101906020018083116108c657829003601f168201915b505050505090508551815114801561094657508560405160200161090791906113ff565b604051602081830303815290604052805190602001208160405160200161092e91906113ff565b60405160208183030381529060405280519060200120145b156109545781925050610968565b818061095f9061109d565b9250505061082f565b6002548214610a91576000808381548110610986576109856114a8565b5b906000526020600020906006020160030180546109a290611114565b80601f01602080910402602001604051908101604052809291908181526020018280546109ce90611114565b8015610a1b5780601f106109f057610100808354040283529160200191610a1b565b820191906000526020600020905b8154815290600101906020018083116109fe57829003601f168201915b5050505050905080518551148015610a7e575080604051602001610a3f91906113ff565b6040516020818303038152906040528051906020012085604051602001610a6691906113ff565b60405160208183030381529060405280519060200120145b15610a8f5760019350505050610a98565b505b6000925050505b92915050565b6000600560009054906101000a900473ffffffffffffffffffffffffffffffffffffffff16905090565b600560009054906101000a900473ffffffffffffffffffffffffffffffffffffffff1681565b60045481565b600090565b6000604051905090565b600080fd5b600080fd5b600080fd5b600080fd5b6000601f19601f8301169050919050565b7f4e487b7100000000000000000000000000000000000000000000000000000000600052604160045260246000fd5b610b6082610b17565b810181811067ffffffffffffffff82111715610b7f57610b7e610b28565b5b80604052505050565b6000610b92610af9565b9050610b9e8282610b57565b919050565b600067ffffffffffffffff821115610bbe57610bbd610b28565b5b610bc782610b17565b9050602081019050919050565b82818337600083830152505050565b6000610bf6610bf184610ba3565b610b88565b905082815260208101848484011115610c1257610c11610b12565b5b610c1d848285610bd4565b509392505050565b600082601f830112610c3a57610c39610b0d565b5b8135610c4a848260208601610be3565b91505092915050565b60008060008060008060c08789031215610c7057610c6f610b03565b5b600087013567ffffffffffffffff811115610c8e57610c8d610b08565b5b610c9a89828a01610c25565b965050602087013567ffffffffffffffff811115610cbb57610cba610b08565b5b610cc789828a01610c25565b955050604087013567ffffffffffffffff811115610ce857610ce7610b08565b5b610cf489828a01610c25565b945050606087013567ffffffffffffffff811115610d1557610d14610b08565b5b610d2189828a01610c25565b935050608087013567ffffffffffffffff811115610d4257610d41610b08565b5b610d4e89828a01610c25565b92505060a087013567ffffffffffffffff811115610d6f57610d6e610b08565b5b610d7b89828a01610c25565b9150509295509295509295565b6000819050919050565b610d9b81610d88565b8114610da657600080fd5b50565b600081359050610db881610d92565b92915050565b600060208284031215610dd457610dd3610b03565b5b6000610de284828501610da9565b91505092915050565b600073ffffffffffffffffffffffffffffffffffffffff82169050919050565b6000610e1682610deb565b9050919050565b610e2681610e0b565b82525050565b600081519050919050565b600082825260208201905092915050565b60005b83811015610e66578082015181840152602081019050610e4b565b83811115610e75576000848401525b50505050565b6000610e8682610e2c565b610e908185610e37565b9350610ea0818560208601610e48565b610ea981610b17565b840191505092915050565b600060c082019050610ec96000830189610e1d565b8181036020830152610edb8188610e7b565b90508181036040830152610eef8187610e7b565b90508181036060830152610f038186610e7b565b90508181036080830152610f178185610e7b565b905081810360a0830152610f2b8184610e7b565b9050979650505050505050565b610f4181610d88565b82525050565b6000602082019050610f5c6000830184610f38565b92915050565b60008060408385031215610f7957610f78610b03565b5b600083013567ffffffffffffffff811115610f9757610f96610b08565b5b610fa385828601610c25565b925050602083013567ffffffffffffffff811115610fc457610fc3610b08565b5b610fd085828601610c25565b9150509250929050565b60008115159050919050565b610fef81610fda565b82525050565b600060208201905061100a6000830184610fe6565b92915050565b60006020820190506110256000830184610e1d565b92915050565b60006cffffffffffffffffffffffffff82169050919050565b61104d8161102b565b82525050565b60006020820190506110686000830184611044565b92915050565b7f4e487b7100000000000000000000000000000000000000000000000000000000600052601160045260246000fd5b60006110a882610d88565b91507fffffffffffffffffffffffffffffffffffffffffffffffffffffffffffffffff82036110da576110d961106e565b5b600182019050919050565b7f4e487b7100000000000000000000000000000000000000000000000000000000600052602260045260246000fd5b6000600282049050600182168061112c57607f821691505b60208210810361113f5761113e6110e5565b5b50919050565b60008190508160005260206000209050919050565b60006020601f8301049050919050565b600082821b905092915050565b6000600883026111a77fffffffffffffffffffffffffffffffffffffffffffffffffffffffffffffffff8261116a565b6111b1868361116a565b95508019841693508086168417925050509392505050565b6000819050919050565b60006111ee6111e96111e484610d88565b6111c9565b610d88565b9050919050565b6000819050919050565b611208836111d3565b61121c611214826111f5565b848454611177565b825550505050565b600090565b611231611224565b61123c8184846111ff565b505050565b5b8181101561126057611255600082611229565b600181019050611242565b5050565b601f8211156112a55761127681611145565b61127f8461115a565b8101602085101561128e578190505b6112a261129a8561115a565b830182611241565b50505b505050565b600082821c905092915050565b60006112c8600019846008026112aa565b1980831691505092915050565b60006112e183836112b7565b9150826002028217905092915050565b6112fa82610e2c565b67ffffffffffffffff81111561131357611312610b28565b5b61131d8254611114565b611328828285611264565b600060209050601f83116001811461135b5760008415611349578287015190505b61135385826112d5565b8655506113bb565b601f19841661136986611145565b60005b828110156113915784890151825560018201915060208501945060208101905061136c565b868310156113ae57848901516113aa601f8916826112b7565b8355505b6001600288020188555050505b505050505050565b600081905092915050565b60006113d982610e2c565b6113e381856113c3565b93506113f3818560208601610e48565b80840191505092915050565b600061140b82846113ce565b915081905092915050565b7f43616e6e6f74207769746864726177206d6f7265207468616e2032206574686560008201527f7200000000000000000000000000000000000000000000000000000000000000602082015250565b6000611472602183610e37565b915061147d82611416565b604082019050919050565b600060208201905081810360008301526114a181611465565b9050919050565b7f4e487b7100000000000000000000000000000000000000000000000000000000600052603260045260246000fdfea2646970667358221220cb35d12ec6c42044c0a6e59b9f8161f55d1c690e54eba0c3692c10fdd78b654b64736f6c634300080f0033",
  "immutableReferences": {},
  "source": "// SPDX-License-Identifier: MIT\r\npragma solidity >=0.4.22 <0.9.0;\r\n\r\ncontract Funder {\r\n    //user\r\n    struct user {\r\n        address userAddress;\r\n        string username;\r\n        string email;\r\n        string password;\r\n        string firstname;\r\n        string lastname;  \r\n    }\r\n    struct registration{\r\n        uint256 index;\r\n        string date;\r\n        string time;\r\n    }\r\n    \r\n\r\n   \r\n\r\n    user[] public users;\r\n    mapping(string=>user)accounts;\r\n    uint256 public usersCount = 0;\r\n    uint256 withdrawalRequestcount = 0;\r\n    uint256 public numOfFunders = 0;\r\n    address public owner;\r\n    uint256 public accepted;\r\n    \r\n    function getUser(string memory em, string memory pass) public view returns(bool)    \r\n    {\r\n        uint256 p = usersCount;\r\n        uint256 i = 0;\r\n        while (i < usersCount) {\r\n            string memory curr = users[i].email;\r\n            if (\r\n                bytes(curr).length == bytes(em).length &&\r\n                keccak256(abi.encodePacked(curr)) ==\r\n                keccak256(abi.encodePacked(em))\r\n            ) {\r\n                p = i;\r\n\r\n                break;\r\n            }\r\n\r\n            i++;\r\n        }\r\n\r\n        if (p != usersCount) {\r\n            string memory pss = users[p].password;\r\n            if (\r\n                bytes(pass).length == bytes(pss).length &&\r\n                keccak256(abi.encodePacked(pass)) ==\r\n                keccak256(abi.encodePacked(pss))\r\n            // ) return users[p].userAddress;\r\n            )return true;\r\n        } \r\n        return false;\r\n    }\r\n\r\n    function createUser(\r\n        string memory _email,\r\n        string memory password,\r\n        string memory firstname,\r\n        string memory lastname,\r\n        string memory _username,\r\n        string memory token\r\n    ) public {\r\n        user memory newUser = user({\r\n            email: _email,\r\n            username: _username,\r\n            password: password,\r\n            firstname:firstname,\r\n            lastname:lastname,\r\n            userAddress:msg.sender\r\n        });\r\n        usersCount++;\r\n        users.push(newUser);\r\n        accounts[token]=newUser;\r\n    }\r\n\r\n    constructor() {\r\n        owner = msg.sender;\r\n    }\r\n\r\n    // mapping(uint256 => address) private funders;\r\n    // Get owner\r\n    function getOwner() public view returns (address) {\r\n        return owner;\r\n    }\r\n    \r\n    function createAppoint()public view returns (uint104){\r\n   \r\n    }\r\n    \r\n    //Add new withdrawal request//\r\n    // function createRequest(uint256 v1) public  {\r\n\r\n    //     request memory newrequest= request({\r\n             \r\n    //          value:v1,\r\n    //          recipient:owner,\r\n    //          complete:false,\r\n    //          approvalCount:0\r\n    //     });\r\n    //     requests.push(newrequest);\r\n    // }\r\n\r\n    // function transfer() external payable {\r\n    //     bool exist = false;\r\n    //     for (uint256 i = 0; i < contributer.length; i++) {\r\n    //         if (contributer[i].useraddress == msg.sender) {\r\n    //             exist = true;\r\n    //             contributer[i].amount += msg.value;\r\n    //             break;\r\n    //         }\r\n    //     }\r\n\r\n    //     if (!exist) {\r\n    //         contribution memory newContro = contribution({\r\n    //             useraddress: msg.sender,\r\n    //             amount: msg.value,\r\n    //             approved: false\r\n    //         });\r\n    //         numOfFunders++;\r\n    //         contributer.push(newContro);\r\n    //     }\r\n    // }\r\n\r\n    // function contibute() public payable {\r\n    //     require(msg.value > 2);\r\n\r\n    //     contributers.push(msg.sender);\r\n    //     //   approvers[msg.sender] = true;\r\n    //     //   approversCount++;\r\n    // }\r\n    // function approval(uint key) public {\r\n    //     // for (uint256 i = 0; i < contributer.length; i++) {\r\n    //     //     if (contributer[i].useraddress == msg.sender) {\r\n    //     //         contributer[i].approved = true;\r\n    //     //         accepted++;\r\n    //     //         break;\r\n    //     //     }\r\n    //       requests[key].approved = true;\r\n    //             accepted++;\r\n    //     }\r\n    \r\n\r\n    function withdraw(uint256 withdrawAmount) external {\r\n        require(\r\n            withdrawAmount <= 2000000000000000000 && msg.sender == owner,\r\n            \"Cannot withdraw more than 2 ether\"\r\n        );\r\n        payable(msg.sender).transfer(withdrawAmount);\r\n    }\r\n}",
  "sourcePath": "I:\\Tutorpoint_projects\\webd\\Project\\contracts\\Funder.sol",
  "compiler": {
    "name": "solc",
    "version": "0.8.15+commit.e14f2714.Emscripten.clang"
  },
  "schemaVersion": "3.4.11",
  "updatedAt": "2023-12-18T17:53:11.619Z",
  "networkType": "ethereum",
  "devdoc": {
    "kind": "dev",
    "methods": {},
    "version": 1
  },
  "userdoc": {
    "kind": "user",
    "methods": {},
    "version": 1
  }
}